:020000040800F2
:10000000E03B0020E10100086F3C0008D52C00080F
:100010006D3C0008DD0D00082544000800000000CC
:10002000000000000000000000000000490100087E
:10003000AF120008000000008D0100082D3F0008ED
:10004000FB010008FB010008FB010008FB010008A0
:10005000FB010008FB010008FB010008FB01000890
:10006000FB010008FB010008FB010008FB01000880
:10007000FB010008FB0100086D120008791200085E
:10008000FB010008FB010008FB010008FB01000860
:10009000FB010008FB010008FB010008FB01000850
:1000A000FB010008D93F0008FB010008FB01000824
:1000B000FB010008FB010008FB010008FB01000830
:1000C000FB010008FB010008FB010008FB01000820
:1000D000FB010008C5430008FB010008FB01000804
:1000E000FB010008FB010008FB010008FB01000800
:1000F000FB010008FB010008FB010008FB010008F0
:10010000FB010008FB010008FB010008FB010008DF
:10011000FB010008FB010008FB010008FB010008CF
:10012000FB010008FB010008FB010008FB010008BF
:10013000DFF810D000F0C2FC00480047554E000820
:10014000AFF30080E03B0020224B19680868B0E85C
:10015000F00F80F30988BFF36F8F4FF0000080F33A
:1001600011884EF00D0E7047000000000648006830
:10017000006880F3088862B661B6BFF34F8FBFF3A3
:100180006F8F00DF00BF00BF08ED00E0EFF30980D4
:10019000BFF36F8F0F4B1A6820E9F00F106008B59E
:1001A0004FF0500080F31188BFF34F8FBFF36F8F74
:1001B00005F0E6FE4FF0000080F31188BDE808402E
:1001C00019680868B0E8F00F80F30988BFF36F8FF3
:1001D000704700BF68000020EFF305807047000003
:1001E0000648804706480047FEE7FEE7FEE7FEE7D1
:1001F000FEE7FEE7FEE7FEE7FEE7FEE7D53F000885
:1002000031010008202A04DB203A21FA02F0002103
:10021000704721FA02F3D040C2F120029140084316
:100220001946704740EA01039B0703D009E008C95B
:10023000121F08C0042AFAD203E011F8013B00F8AB
:10024000013B521EF9D27047D2B201E000F8012BF7
:10025000491EFBD270470022F6E710B513460A4646
:1002600004461946FFF7F0FF204610BD10B50022E6
:1002700000E0521C835C8C5CA34201D1002BF8D1BE
:10028000D8B2E1B2401A10BD034611F8012B00F8B4
:10029000012B002AF9D118467047000070B50F4DA8
:1002A00000B92868002412E00A4602E09E4203D00A
:1002B000521C1378002BF9D1DAB2224305D02BB1AE
:1002C00024B1002100F8011B04E00446401C06781C
:1002D000002EE9D12860204670BD0000E00000201B
:1002E000F0B480EA0102D40F4200B2EB410F02D217
:1002F0000246084611464A0042D0C30DDDB2C1F3A2
:10030000C752AD1A202D35DAC1F3160141F40002AF
:1003100004B15242C5F1200602FA06F12A41104406
:10032000B3EBD05F23D0C4B1012DA0EBC35009DCE7
:10033000F0BC4FF0004202EAC352DBB200F500000D
:1003400000F092BA400000F1807000EBC350A0F1C1
:10035000807040EAD170490009E0490841EAC07163
:10036000A0EBC35000F50000400800EBC350F0BC08
:1003700000F071BA6142012202EB4101001BF6E775
:10038000F0BC704781F00041AAE780F00040A7E789
:1003900080EA010210B502F00043400022D04A007A
:1003A0001FD0010E01EB1261C0F35600C2F35602DA
:1003B00040F4000042F40002A0FB022000047F3958
:1003C000140400D0401C50EA124001D44000491EE1
:1003D000C2B20C0604EBD010401C4008802A02D0A8
:1003E00003E0002010BD20F00100002900DA002009
:1003F000184310BD30B480EA010202F0004530F02D
:10040000004221F0004013D090B1C30DD40DC2F3CF
:100410001601C0F31600E41A41F4000140F4000292
:100420007D34914201D3641C00E04900002C02DAC3
:1004300030BC002070474FF400000023914201D3EC
:10044000891A034340084FEA4101F7D151B1914263
:1004500002D14FF0004105E002D24FF0010101E06E
:100460006FF0010103EBC450284430BC00F0F3B935
:100470002DE9FE4F804681EA0300C00F0C46009034
:1004800021F0004123F00045B8EB0200A94105D25C
:100490004046214690461C460B46024623F000404B
:1004A000104347D0270DC7F30A00C3F30A51029047
:1004B000401A019040286BDAC3F3130040F4801B0C
:1004C0000098924620B10023D2EB030A63EB0B0B9A
:1004D00001985946C0F14002504600F09BF906468B
:1004E0000D4650465946019A00F0A3F910EB08005A
:1004F0006141002487EA115284EAE7731A4340D02D
:10050000009A62B3019A012A4FEA075215DC001BD8
:1005100061EB02014FF0004202EA0752CDE90042CE
:10052000001C41F5801132462B4600F0DAF903B089
:10053000BDE8F08F40462146F9E7001B61EB020160
:10054000001C41F5801300185B412018A2F500172C
:1005500047EB030140EAD570B6196D4111E06D0813
:100560004FEA360645EAC0754FEA0752001B61EBB9
:100570000201001C41F5801149084FEA30000019C2
:10058000514132462B4603B0BDE8F04F00F09AB916
:100590000098012240000023D0EB020263EBE073DD
:1005A000009821464FEAE074B8EB000061EB0401CB
:1005B000E9E783F000435BE781F0004158E72DE96C
:1005C000FE4F81EA030404F0004421F0004100944E
:1005D0004FF0000B23F0004350EA01045ED052EAD2
:1005E00003045BD0C3F30A54C1F30A552C44A4F2AC
:1005F000F3340194A0FB0254C1F3130141F48011C0
:10060000C3F3130343F4801301FB024400FB034EC6
:10061000840A970A44EA815447EA8357A4FB07688F
:1006200002958D0A05FB07854FEA932C04FB0C54B9
:100630002705029D4FEA065847EA1637B5EB08052D
:100640006EEB070C870E920E47EA811742EA83127F
:10065000A7FB0201B6EB0B0164EB00042B0D43EA90
:100660000C335E1844EB1C50DA465146E7FB02019E
:10067000C5F313044FEA0B3343EA14534FEA043231
:10068000019C43EA0603A4F10C040294009CCDE90A
:1006900000B400F026F903B0BDE8F08F0020014659
:1006A000F9E7C10F80EAE0700844CA0796230021E9
:1006B00000F0DAB80EB540F2334102910021CDE9E5
:1006C00000110A460B4600F00CF903B000BD00F023
:1006D000004220F00040C10DC0F3160040F40000BD
:1006E0007F2901DA00207047962903DCC1F19601C9
:1006F000C84001E096398840002AF4D04042704753
:1007000020F00040C10DC0F3160040F400007F2926
:1007100001DA00207047962903DCC1F19601C84038
:10072000704796398840704700F0004230F0004032
:100730000AD0C10D01F56071C0F3160042EA015103
:10074000C20840071143704700200146704701F07E
:10075000004330B421F0004150EA010206D00A0DF6
:10076000A2F56072C1F31301002A02DC30BC002044
:100770007047440F44EAC104C100E01830BC00EBEC
:10078000C25000F068B830B50B4601460020202268
:10079000012409E021FA02F59D4205D303FA02F58E
:1007A000491B04FA02F52844151EA2F10102F1DCEE
:1007B00030BD2DE9F05F0546002092469B468846F5
:1007C0000646814640241BE02846414647462246CD
:1007D000FFF718FD53465A46C01A914110D31146EF
:1007E0001846224600F016F82D1A67EB01084F460E
:1007F00022460120002100F00DF817EB00094E41C0
:10080000201EA4F10104DFDC484631462A46434657
:10081000BDE8F09F202A04DB203A00FA02F1002014
:1008200070479140C2F1200320FA03F3194390402E
:100830007047202A06DBCB17203A41FA02F043EA40
:10084000E07306E041FA02F3D040C2F12002914089
:100850000843194670470029A8BF7047401C49004B
:1008600008BF20F00100704710B4B0FA80FC00FA15
:100870000CF050EA010404BF10BC704749B1CCF140
:10088000200421FA04F411FA0CF118BF01212143CC
:100890000843A3EB0C01CB1D4FEA00614FEA102087
:1008A00042BF002010BC704700EBC3501044002929
:1008B000A4BF10BC7047401C490008BF20F00100D5
:1008C00010BC704710B5141E73F1000408DA401C08
:1008D00041F1000192185B411A4301D120F001005F
:1008E00010BD2DE9F04D92469B4611B1B1FA81F24F
:1008F00002E0B0FA80F220329046FFF78BFF044608
:100900000F4640EA0A0041EA0B0153465A460843A3
:1009100013D0114653EA010019D0C8F140025046E5
:10092000FFF770FC05460E46504659464246FFF713
:1009300071FF084305D0012004E020463946BDE898
:10094000F08D0020054346EAE0762C4337430A98B1
:100950006305E40AA0EB08000022FD0A44EA4754BC
:100960000A3002D500200146E9E701051019694166
:10097000DDE9084500196941BDE8F04DA2E72DE920
:10098000F04D81EA030404F0004B21F000451446C9
:100990004FF0000A23F0004150EA050220D054EA4B
:1009A00001021DD0C5F30A570246C5F31303C1F374
:1009B0001300C1F30A5640F4801543F48013A7EBEB
:1009C0000608101BD64608F2FD3873EB050002D36B
:1009D00008F1010801E092185B41B8F1000F03DA59
:1009E00000200146BDE8F08D00204FF4801106463E
:1009F00084460EE0171B73EB050705D3121B63EB50
:100A0000050306434CEA010C49084FEA30009218EE
:100A10005B4150EA0107EDD152EA030012D082EAAD
:100A2000040083EA0501084305D0101BAB4106D240
:100A30000122002306E000224FF0004302E06FF0A5
:100A4000010253101AEB06004CEB085110EB0A00A0
:100A500041EB0B01BDE8F04DFFF734BFC1F30A5283
:100A6000C1F3130140F2FF3341F480119A4202DADC
:100A700000200146704740F233439A42A2F23342CB
:100A800002DC5242FFF7BEBBFFF7C4BE30B5041E06
:100A900071F1000404DB4FF00044404264EB0101BB
:100AA000141E73F1000405DB1C464FF00043524254
:100AB00063EB0403994208BF904230BD064C074DDA
:100AC00006E0E06840F0010394E80700984710341E
:100AD000AC42F6D3FFF730FB84A50008A4A50008BC
:100AE00010B51FA003F0F8FCC82004F083F91F4ADA
:100AF000107B2B2833D1507B432830D1907B432867
:100B00002DD1D07B4C282AD1107C4B2827D1917F26
:100B100012F81D0F6FF02F03303800EB800003EB4D
:100B200040000844D1781479303901EB810103EB9E
:100B300041012144D4799279C0B2303A02EB820269
:100B400003EB42022244C9B2D2B2172807D83B298C
:100B500005D83B2A03D8BDE8104003F041B910BDC9
:100B600041542B43434C4B3F0D0A0000D40100205D
:100B700010B505E026A003F0AFFC642004F03AF9BC
:100B800025A12848FFF772FB0028F3D105E026A035
:100B900003F0A2FCC82004F02DF926A12148FFF79C
:100BA00065FB0028F3D105E02BA003F095FCC820DD
:100BB00004F020F92BA11B48FFF758FB0028F3D1C4
:100BC00005E030A003F088FCC82004F013F930A140
:100BD0001448FFF74BFB0028F3D135A003F07CFC51
:100BE000C82004F007F935A10E48FFF73FFB0028A5
:100BF0000CD13AA003F070FCC82004F0FBF83CA034
:100C000003F06AFCC82004F0F5F8E6E710BD000028
:100C100041540D0A0000000041540D0A0D0A4F4BCB
:100C20000D0A0000D401002041542B4350494E3F8F
:100C30000D0A000041542B4350494E3F0D0A0D0A46
:100C40002B4350494E3A2052454144590D0A0D0A52
:100C50004F4B0D0A0000000041542B435245473FC3
:100C60000D0A000041542B435245473F0D0A0D0A1F
:100C70002B435245473A20302C310D0A0D0A4F4B79
:100C80000D0A000041542B43474154543F0D0A00C4
:100C900041542B43474154543F0D0A0D0A2B4347FF
:100CA0004154543A20310D0A0D0A4F4B0D0A0000F1
:100CB00041542B43494653520D0A000041542B43E3
:100CC000494653520D0A0D0A2B434D4520455252B9
:100CD0004F523A20330D0A0D0A00000041542B43B5
:100CE0005354543D22222C22222C22220D0A000091
:100CF00041542B43494943520D0A000070B505E0A9
:100D00000FA003F0E9FBC82004F074F810A1164806
:100D1000FFF7ACFA0028F3D114A003F0DDFBC820E4
:100D200004F068F84FF416740F4D05E013A003F0BB
:100D3000D3FB204604F05EF8687A3128F6D170BD06
:100D400041542B434E54504349443D310D0A000059
:100D500041542B434E54504349443D310D0A0D0A32
:100D60004F4B0D0A00000000D401002041542B53CA
:100D7000415042523D312C310D0A000041542B4369
:100D80004E54500D0A000000064882B0816941F0BF
:100D900010018161806900F010000090024802B0EB
:100DA00002F010B9001002400400002008B50B4604
:100DB000009202465021024802F008FA08BD0000E5
:100DC0000400002008B50B4600920246502102485C
:100DD00002F06EFA08BD000004000020FEE70000EB
:100DE000A4B0B74FB74EB84C00254FF0550B4FF09D
:100DF000640A4FF018084FF6FF790123002222A958
:100E0000386804F067F900285AD19DF88800012855
:100E100002D0022811D019E06068FFF785FCAB4AC8
:100E2000AB4BFFF725FBFFF792FC6060B0F1804F02
:100E30000CDD4FF07C50606008E02088643000B228
:100E40002080B0F5FA6F01DDA24820808DF88CB0CB
:100E5000A1496068FFF79CFAFFF739FC8DF88D0017
:100E6000B4F9001091FBFAF08DF88E0005F080F8CF
:100E700023AA03210020FFF7A5FF05F01DFD6068F0
:100E8000FFF752FC02460B4694A103A803F034FB83
:100E9000CDE900584B4603AA3C210020029502F000
:100EA000B3FCB4F9002090A103A803F025FBCDE921
:100EB00000584B4603AA5A210020029502F0A4FCD8
:100EC0003078012870D18B48357081782B29F9D181
:100ED000C1784D29F6D101795329F3D141795529AA
:100EE000F0D181794229EDD1C0793A28EAD182A1A5
:100EF0008048FFF7D3F980A10020FFF7CFF97EA14A
:100F00000020FFF7CBF97CA10020FFF7C7F97AA1F9
:100F10000020FFF7C3F979A10020FFF7BFF90246CF
:100F200077A115A803F0E8FA76A10020FFF7B6F93B
:100F300075A10020FFF7B2F9024600786B282AD18C
:100F400050783D2827D1D0782E2824D15079622896
:100F500021D190793D281ED103950495059568A16E
:100F600003A8069503F0C8FA9DF80E009DF810102E
:100F7000303800EB80006FF02F0202EB4000084495
:100F8000FFF78FFB5449FFF735FA86469DF81800A6
:100F90004FF0000C08B15DA186E09DF813002D28EC
:100FA00003D0072003AA1EE085E0082003AA08E07A
:100FB0000CEB8C01490030391944401C0FFA81FCBC
:100FC000C0B2135C002BF3D1CCF100000FFA80FC0F
:100FD0000CE000BF0CEB8C01490030391944401C77
:100FE0000FFA81FCC0B2135C002BF3D1AEF17C5040
:100FF000B0F1807F53D8BCF5FA6F50DC1CF5FA6F66
:101000004DDBC4F804E0A4F800C07046CDF800C081
:10101000FFF78AFB02460B463FA107A803F06CFAD4
:1010200007A915A803F038FF8DF88CB02A4960682D
:10103000FFF7AEF9FFF74BFB8DF88D00B4F9001008
:1010400091FBFAF08DF88E0004F092FF23AA0321A1
:101050000020FFF7B7FE05F02FFC6068FFF764FB88
:1010600002460B461DA103A803F046FACDE900583D
:101070004B4603AA3C210020029502F0C5FBB4F9BF
:10108000002019A103A803F037FACDE900584B4618
:1010900003AA5A210020029502F0B6FB07E024A122
:1010A00007A803F029FA07A915A803F0F5FE3421D3
:1010B00015A8FFF7D0F8642003F0B6FF9DE6000006
:1010C0004C00002000000020500000209A999999BF
:1010D0009999B93F30F8FFFF000020416B203D2077
:1010E000252E31662020200062203D20256420200E
:1010F00020000000D40100202F000000220000008A
:10110000257300002C0000000D000000466F726D7A
:1011100061745F4572726F00466F726D61745F4FEC
:101120004B2C6B3D252E31662C623D256400000062
:10113000466F726D61745F4F4B2C76616C75655FA5
:101140006572726F000000000EB50024DFF8748035
:10115000DFF874904FF4C87618254FF6FF7742F207
:10116000107A00BF00F054F8002826D103F04AFF9F
:10117000D8F8002015A0D9F8001003F0ADF93046DA
:1011800003F038FE17A003F0A7F9304603F032FE53
:10119000CDE900453B4618A296210020029402F0BA
:1011A00033FB304603F026FECDE900453B4615A251
:1011B00096210020029402F027FB504603F034FFF2
:1011C000D0E700002C0000202800002041542B4DC7
:1011D000495053544152543D222573222C25730DFE
:1011E0000A00000041542B4D434F4E4E4543543DA1
:1011F000312C3132300D0A007265636F6E6E65639B
:10120000740000002020202020202020200000004A
:1012100010B507A003F060F9C82003F0EBFD08A1AA
:101220001148FFF723F808B1002010BD012010BDC0
:1012300041542B4D51545453544154550D0A000000
:1012400041542B4D51545453544154550D0A0D0AD9
:101250002B4D5154545354415455203A310D0A0DDD
:101260000A4F4B0D0A000000D4010020014800F095
:10127000DDB8000090010020014800F0D7B8000060
:101280004C01002030B590F840500124AC40C56BB3
:101290006C60046863604368102B036803D0996036
:1012A0000068C26030BD9A600068C16030BD7047A0
:1012B00072B6FEE710B590F821100022022905D081
:1012C0000421816380F82020012010BD01680B6893
:1012D00023F00E030B6001680B6823F001030B6021
:1012E00090F84030C46B012101FA03F3636080F889
:1012F000211080F82020104610BD00002DE9F05F7D
:1013000090F821100024022903D0042181630124D4
:1013100085E001680A6822F00E020A6001680A6826
:1013200022F001020A603F4E3E4FB215DFF8F4C0D2
:10133000DFF8F090DFF8ECA0DFF8E8B0DFF8E4E0E9
:101340000168783F13011502ACF1640CA9F1500952
:10135000AAF13C0AABF1280BAEF1140E4FF4801841
:10136000B14227D9B9420ED0614512D049451DD0AE
:10137000514518D0594518D0714501D1424615E064
:10138000294EB14201D1012210E0274E1436B1425C
:1013900001D110220AE0244E2836B14206D0224A5A
:1013A0003C32914201D11A4600E02A461E49091FEB
:1013B0000A602BE0B94213D0614517D0494522D0CD
:1013C00051451DD059451DD0714501D142461AE005
:1013D000B14202D14FF0807215E0134EB14201D1FB
:1013E000012210E0104E1436B14201D110220AE061
:1013F0000D4E2836B14206D00B4A3C32914201D103
:101400001A4600E02A46074980394A60012180F8DF
:101410002110002180F82010416B01B1884720463F
:10142000BDE8F09F80000240080402402DE9F05F13
:10143000C16B0A6801680B68046C4FF0040808FA75
:1014400004F8844D844E854FDFF814C2DFF81492FF
:10145000DFF814A2DFF814B2DFF814E218EA020F82
:1014600065D05FEA437862D50A68920603D40A68B9
:1014700022F004020A60DFF8F0814FF48062016814
:1014800008F1140813011402414524D9A9420DD0D2
:10149000B1420FD0B9421AD0614515D0494515D097
:1014A000514501D1120312E0594501D104220EE049
:1014B000714501D140220AE06D4D1435A94206D094
:1014C0006B4A2832914201D11A4600E02246674910
:1014D000091F0A6029E0A94213D0B14215D0B942D0
:1014E00020D061451BD049451BD0514502D14FF456
:1014F000800217E0414502D14FF0806212E0594569
:1015000001D104220EE0714501D140220AE0584D7C
:101510001435A94206D0564A2832914201D11A46C2
:1015200000E022464B4908394A60C16A71E04FF039
:10153000020808FA04F818EA020F70D05FEA83780C
:101540006DD50A68920606D40A6822F00A020A607B
:10155000012180F82110DFF810814FF4007201683A
:1015600008F1140813011402414524D9A9420DD0F1
:10157000B1420FD0B9421AD0614515D0494515D0B6
:10158000514501D1120312E0594501D102220EE06A
:10159000714501D120220AE0354D1435A94206D00B
:1015A000334A2832914201D11A4600E022462F499F
:1015B000091F0A6029E0A94213D0B14215D0B942EF
:1015C00020D061451BD049451BD0514502D14FF475
:1015D000001217E0414502D14FF0007212E0594568
:1015E00001D102220EE0714501D120220AE0204DF6
:1015F0001435A94206D01E4A2832914201D11A461A
:1016000000E02246134908394A60002180F8201082
:10161000816A00291CD0BDE8F05F0847FFE7082574
:10162000A540154214D01A0712D50A6822F00E02FE
:101630000A6090F84020C36B012101FA02F25A605F
:10164000816380F82110002180F82010016BE0E711
:10165000BDE8F09F080002401C000240300002403C
:1016600044000240580002406C000240080402405E
:101670001C04024030B560B11A4B026814219A4232
:1016800009D2194B1344B3FBF1F1890001641749E6
:101690000AE0012030BD134B5B421344B3FBF1F170
:1016A000890001640F490839C163022180F82110C3
:1016B000136843F6F0718B43F0E901142143D0E93C
:1016C00002452C4321430469214344692143846931
:1016D00021431943116000214163012242770177C0
:1016E000084630BD08040240F8FFFDBF000002407C
:1016F00070B5044690F82000002501280CD0012088
:1017000084F8200094F821600020012E06D084F88F
:1017100020000225284670BD022070BD022684F8F4
:101720002160A0632068066826F001060660204656
:10173000FFF7A8FDE06A00282068016802D041F0A8
:101740000E0106E021F0040101602068016841F00B
:101750000A0101602068016841F001010160D9E7D8
:1017600070B5044600F01CF90546601C02D0044820
:101770000078044400F014F9401BA042FAD370BD75
:10178000580000202DE9F84FDFF8C891002409F136
:10179000040A0AF1040B23460F270BF1040ED1E0D3
:1017A0000125A54006EA0502AA4276D1DFF8A8C1C4
:1017B0004E68A6EB0C0866452BD00DDC032E34D00A
:1017C00005DC36B3012E19D0022E2FD11BE0112ECD
:1017D00016D0122E2AD119E0B8F5881F19D006DCD0
:1017E000B8F5803F15D0B8F5801F1FD111E0B8F5CE
:1017F000001F0ED0B8F5041F18D10AE0CB6815E021
:10180000CB681B1D12E0CB6808330FE0CB680C33AC
:101810000CE08B682BB1012B4FF0080303D045611E
:1018200004E0042302E0056100E00023FF2A01D860
:10183000064601E000F104064FEA840501D9A5F14E
:101840002005D6F8008007FA05FC28EA0C0803FA00
:1018500005F548EA0508C6F800804D68ED0070D52A
:101860003E4DAE6946F00106AE61AD6924F0030657
:1018700005F0010500953A4D06EB050CDCF8085023
:10188000A607360F07FA06F825EA0805DFF8D48020
:10189000404503D14FF0000825E052E0DFF8C88052
:1018A000404502D14FF001081DE0DFF8C0804045FF
:1018B00002D14FF0020816E0DFF8B480404502D1B3
:1018C0004FF003080FE0DFF8AC80404502D14FF045
:1018D000040808E0DFF8A080404502D14FF0050879
:1018E00001E04FF0060808FA06F848EA0508CCF8C7
:1018F00008804D68D9F80060ED034D4601D51643C8
:1019000000E096432E604D68DAF80060AD0355465E
:1019100001D5164300E096432E604D68DBF8006069
:10192000ED025D4601D5164300E096432E604D68FA
:10193000DEF80060AD02754601D5164300E096431F
:101940002E60641C0A681646E2407FF429AFBDE8A9
:10195000F88F000000040140000011100010024048
:101960000000014000080140000C0140001001404F
:101970000014014000180140001C0140806808402C
:1019800000D001207047C26821EA02030A4043EAFE
:101990000241016170470AB1016170470904FBE728
:1019A00001488068704700005800002070B50400AE
:1019B00011D021684CF6CC400860216845F25550A2
:1019C0000860D4E9000141602168A0688860FFF7E1
:1019D000E7FF05460DE0012070BD00BFFFF7E0FF07
:1019E000401B272805D92068C068800701D0032044
:1019F00070BD2068C0688007F0D121684AF6AA202F
:101A00000860002070BD00684AF6AA21016000202D
:101A10007047000002488168027811448160704775
:101A200058000020074810B5016841F0100101601E
:101A3000032000F0A1F80F2000F006F800F04AF8AB
:101A4000002010BD0020024030B505461C4887B07C
:101A5000816941F400618161806906A900F4006038
:101A6000009001A800F016FA00F044FA1549164A51
:101A7000B0FBF1F11548491E0260416040F2E732C7
:101A80000021C0E903218160816100F0B6FD0400FE
:101A900012D10E4800F0E0FD04000DD1192000F035
:101AA0003DF8102D07D200222946192000F044F8F5
:101AB0000748056000E0012407B0204630BD000063
:101AC0000010024040420F00002C0140C4020020E0
:101AD0005C0000200F4808B5816941F00101816177
:101AE000816901F001010091C16941F08051C1613A
:101AF000C069002200F0805000900F21901E00F07D
:101B00001BF80548416821F0E06141F00071416037
:101B100008BD00000010024000000140002809DB61
:101B200000F01F02012191404009800000F1E020F7
:101B3000C0F8001170470000F0B40E4B1B680C4653
:101B4000C3F30223C3F10705042D00D90425191D91
:101B5000072901D2002300E0DB1E012606FA05F169
:101B6000491E214099409E40761E16403143F0BCEC
:101B700002F0D6BC0CED00E0064900F00702086850
:101B80004FF6FF03184040EA0220034A1043086062
:101B9000704700000CED00E00000FA05014901204B
:101BA0000862704700000E4210B52CA401461DCCFF
:101BB00086B08DE81D002DA02D4C006804900020FB
:101BC00004292FD00BDC01292FD0022928D100F0C5
:101BD00091F96168C1F38131491C49001EE008296F
:101BE00020D010291CD161682268D20118D5C1F318
:101BF0008342C9031DF8020009D5616804AAC1F334
:101C00004041515C1B4AB2FBF1F1484301E01A49E3
:101C100048436168490203D440000321B0FBF1F05E
:101C200006B010BD00F076F9FAE7226AC2F301218E
:101C3000012903D1920701D5C803F1E7022905D193
:101C4000626A920702D549F64040E9E70329E7D1E5
:101C500021688903E4D54FF22440E1E7020304053B
:101C6000060708090A0B0C0D0E0F101001020000E8
:101C70000010024000127A0000093D002DE9F843EF
:101C800005460078354CC00754D0E0690026C000F6
:101C900008D4E06940F08050E061E069012600F07E
:101CA000805000902E480168C90512D40168804612
:101CB00041F480710160FFF773FE074605E000BF45
:101CC000FFF76EFEC01B642823D8D8F80000C005BB
:101CD000F6D5206A10F4407021D0A98801F4407133
:101CE00081421CD0206A1F49012220F440700A6002
:101CF00000220A602062C00711D0FFF751FE07469C
:101D000041F2883808E000BFFFF74AFEC11B414599
:101D100002D90320BDE8F883206A8007F4D5206A41
:101D2000696820F44070084320621EB1E06920F029
:101D30008050E0612878800705D56068A96820F4A4
:101D40004040084360602878C00605D5606869692E
:101D500020F48000084360600020DBE700100240B0
:101D600000700040400442422DE9F0470F46050054
:101D700061D0434E306800F00700B84209D23068A5
:101D800020F0070038433060306800F00700B842A8
:101D900051D128683B4C810712D5400703D56068B4
:101DA00040F4E06060602878000703D5606840F484
:101DB000605060606068A96820F0F00008436060CF
:101DC0002878C00728D06868012810D02168022828
:101DD00010D0890700292EDA616821F00301014340
:101DE0006160FFF7DDFD804641F288390DE0216832
:101DF0008903EFE78901EDE7FFF7D2FDA0EB0801CA
:101E0000494502D90320BDE8F0876068696800F0A1
:101E10000C00B0EB810FEFD1306800F00700B84242
:101E20000BD9306820F0070038433060306800F08C
:101E30000700B84201D00120E5E72878400705D522
:101E40006068E96820F4E060084360602878000773
:101E500006D56068296920F4605040EAC1006060DE
:101E600000F058F86168084AC1F30311515CC8409A
:101E70000649086006480068FFF7E6FD0020C2E753
:101E800000200240001002405CA400086400002012
:101E90005C0000200F2202600C4A536803F0030329
:101EA0004360536803F0F0038360536803F4E06316
:101EB000C36052684FF4E06303EAD202026104484F
:101EC000006800F007000860704700000010024042
:101ED000002002400448054900684968044AC1F3EB
:101EE0000221515CC840704764000020001002408D
:101EF0006CA400080448054900684968044AC1F315
:101F0000C221515CC84070476400002000100240AC
:101F10006CA4000812A185B00FC98DE80F0014A0B1
:101F2000144A006804905168134801F00C03042B14
:101F300010D0082B0ED1C1F38343C9031DF8030051
:101F40000AD5516804AAC1F34041515C0A4A504382
:101F5000B0FBF1F005B0704708494843FAE70000CC
:101F600002030405060708090A0B0C0D0E0F1010DA
:101F7000010200000010024000127A0000093D003A
:101F80002DE9F84F040070D02078C04DC00749D02B
:101F90006868C0F38100012807D06868C0F3810039
:101FA000022809D16868C00306D52868800339D59E
:101FB00060680028E7D035E06068B0F5803F0BD05E
:101FC00010B1B0F5A02F11D0286820F4803028601F
:101FD000286820F4802002E0286840F480302860DF
:101FE000606890B1FFF7DCFC06460AE0286840F420
:101FF00080202860F0E700BFFFF7D2FC801B642838
:1020000073D828688003F7D50CE0FFF7C9FC0646B3
:1020100005E000BFFFF7C4FC801B6428F0D82868E7
:102020008003F7D420789A4E80074FF001094FF0D3
:10203000000839D5686810F00C0F07D06868C0F345
:102040008100022809D16868C00306D42868800787
:1020500014D52069012808D110E02069B0B1C6F874
:102060000090FFF79DFC074605E00AE1FFF798FCAA
:10207000C01B0228C4D828688007F7D52868616982
:1020800020F0F80040EAC10028600DE0C6F80080AA
:10209000FFF786FC074604E0FFF782FCC01B02281E
:1020A00023D828688007F7D4207800072CD57948F2
:1020B000A169D9B1C0F80090FFF772FC074604E0AF
:1020C000FFF76EFCC01B02280FD8686A8007F7D59F
:1020D00071484FF4FA510068B0FBF1F0009000BF76
:1020E0000098411E0091FAD20EE080E0C0F8008016
:1020F000FFF756FC074604E0FFF752FCC01B02281E
:1021000075D8686A8007F7D42078400760D5E869F9
:102110000027C00008D4E86940F08050E861E86911
:10212000012700F0805000905C480168C90513D475
:102130000168834641F480710160FFF731FC8246FB
:1021400006E000BFFFF72CFCA0EB0A0064284ED885
:10215000DBF80000C005F5D5E06801280AD008B119
:10216000052813D0286A20F001002862286A20F090
:10217000040002E0286A40F001002862E06841F2B1
:10218000883B98B1FFF70CFC82460BE0286A40F0D0
:1021900004002862EEE700BFFFF702FCA0EB0A0193
:1021A00059455AD8286A8007F6D50CE0FFF7F8FBA6
:1021B000824605E0FFF7F4FBA0EB0A0159454CD835
:1021C000286A8007F6D41FB1E86920F08050E861E2
:1021D000E06988B36968C1F38101022944D002280B
:1021E000C6F8608004D0FFF7DBFB044638E034E03B
:1021F000FFF7D6FB074604E0FFF7D2FBC01B02281F
:102200002BD828688001F7D4206AB0F5803F05D12B
:102210006868A16820F4003008436860D4E90801C8
:102220000843696821F4741108436860C6F8609037
:10223000FFF7B6FB044606E025E000BFFFF7B0FB62
:10224000001B022809D828688001F7D51BE000BFD1
:10225000FFF7A6FB001B022802D90320BDE8F88F78
:1022600028688001F4D40EE00128F7D06868226A5B
:1022700000F48031914204D1616A00F47010884208
:1022800001D00120EAE70020E8E70000001002404A
:10229000000042428004424264000020007000407E
:1022A0002DE9F04791460C465FEA00084AD084B316
:1022B000D8F800004068400744D4404601F080FD53
:1022C0004FF461620546B0FBF2F1B0FBF2F302FBA2
:1022D00013503C23B0FBF3F0B5FBF2F6607002FB49
:1022E0001650B0FBF3F203FB1200A070182931D393
:1022F0001820B1FBF0F7B1FBF0F200FB12102070D8
:10230000404601F056FD411C04D0A84202D9461BAC
:1023100002E017E04FF0FF36A7EB071000EB40009C
:10232000C0EB001005EBC0152946404601F0ADFD9D
:1023300040B9701C01D0711900E03146404601F0EF
:1023400090FD10B10120BDE8F0873946404601F00C
:10235000A3FC00E02170B9F1000F0BD0207801F050
:1023600090FC2070607801F08CFC6070A07801F027
:1023700088FCA0700020E6E770B5040003D0607C04
:10238000002610B105E0012070BD2674204600F043
:1023900043F802206074204600F010F9042578BB51
:1023A000204601F0D0FC58BB2068416821F00701AD
:1023B0004160A06820B11748016821F00101016067
:1023C0001448001F0168A26821F460711143016084
:1023D0006068411C04D10120FFF7E6FB80B1401E7C
:1023E00021688A6822F00F0242EA10428A6021685E
:1023F000CA6860F30F02CA60204601F0BFFC08B152
:102400006574C0E7E67301206073A07360740020F8
:1024100070BD0000306C004008B500680849884273
:102420000DD1FFF7BBFB0748C16941F00061C161F5
:10243000C069054900F0006000900120086008BDF7
:1024400000280040001002403C0442422DE9F041C7
:102450000D4604003BD0C5B3207C01283AD04FF094
:10246000010884F8108002206074E87872B301F0EB
:10247000FFFBE073687801F0FBFB6073A87801F064
:10248000F7FBA073C2B2617BE07B01F0BFFC20735D
:102490002870204601F094FC4FF46161B0FBF1F12B
:1024A000002518292DD91822B1FBF2F1A1EB011159
:1024B00001EB4101C1EB011100EBC1163146204691
:1024C00001F0E3FC0427C8B90BE000E004E00120C0
:1024D000BDE8F0810220FBE7E07368786073A878BC
:1024E000CFE7204601F065FC411C0AD0B04208D27B
:1024F00006490144204601F0B4FC10B1677425740C
:10250000E5E784F8118025740020E1E7805101009F
:102510002DE9F0410D46040024D01DB3207C012894
:1025200023D04FF0010884F81080022060742878CE
:10253000EAB101F09DFB4FF4616100FB01F66878A0
:1025400001F096FBC0EB001006EB8006A87801F0C6
:102550008FFB35182946204601F097FC00260427FA
:1025600010BB0FE00120BDE8F0810220FBE74FF433
:10257000616148436978C1EB011100EB8100A978E2
:102580004518E7E72068416821F0050141602046D1
:1025900001F00FFC411C0AD0A84208D206490144B0
:1025A000204601F05EFC10B167742674DAE784F807
:1025B000118026740020D6E78051010070B5040018
:1025C0000AD02068416821F008014160FFF7E8F96E
:1025D00005464FF47A7608E0012070BDFFF7E0F978
:1025E000401BB04201D9032070BD2068406800073D
:1025F000F4D5002070BD7047704710B5040003D0BB
:1026000094F83D0010B107E0012010BD002084F8CF
:102610003C00204600F01EF8022084F83D00211DF9
:10262000206801F0DFFC012084F8460084F83E00B9
:1026300084F83F0084F8400084F8410084F84200A8
:1026400084F8430084F8440084F8450084F83D0091
:10265000002010BD7047000090F83D10012901D006
:1026600001207047022180F83D100168CA6842F0DD
:102670000102CA6000680E4988420ED00D498842A6
:102680000BD0B0F1804F08D00B49884205D00B49E0
:10269000884202D00A49884204D1816801F00701CA
:1026A000062903D0016841F0010101600020704754
:1026B000002C0140003401400004004000080040AC
:1026C000000C0040704770B50446006801694FF087
:1026D0000005C943890715D4C168C943890711D4C6
:1026E000E91E01610120207720688069800720466B
:1026F00002D0FFF7E7FF04E000F098F8204600F072
:1027000096F8257720680169C943490717D4C1683D
:10271000C943490713D46FF00401016102202077F7
:102720002068806910F4407F204602D0FFF7CAFF7E
:1027300004E000F07BF8204600F079F82577206867
:102740000169C943090716D4C168C943090712D4EE
:102750006FF008010161042020772068C0698007BC
:10276000204602D0FFF7AEFF04E000F05FF82046FD
:1027700000F05DF8257720680169C943C90617D4C0
:10278000C168C943C90613D46FF010010161082064
:1027900020772068C06910F4407F204602D0FFF700
:1027A00091FF04E000F042F8204600F040F8257761
:1027B00020680169C943C90708D1C168C943C9076D
:1027C00004D1891E0161204600F032F820680169B9
:1027D000C943090609D4C168C943090605D46FF085
:1027E000800101612046FFF706FF20680169C943A7
:1027F000490609D4C168C943490605D46FF04001B0
:102800000161204600F01EF820680169C94389066D
:102810000BD4C168C943890607D46FF02001016158
:102820002046BDE87040FFF7E7BE70BD70477047B7
:1028300000680349884201D1FFF7ECB870470000F7
:10284000002C01407047704710B50446006841698C
:1028500094F83D20C1F3C011212A0BD151B1416937
:1028600021F080014161606B08B1FEF723FD204635
:1028700001F07DFC2068416994F83E20C1F380118D
:10288000222A0BD151B1416921F040014161A06B75
:1028900008B1FEF70FFD204601F051FC002010BDED
:1028A00070470000F8B5026804461068D1685369A3
:1028B00010F00F0F4FF0000553D003F0010601F4A4
:1028C000907737435FD0C20705D0CA0503D5226C85
:1028D00042F001022264420705D5DA0703D0226CD8
:1028E00042F002022264820705D5DA0703D0226C87
:1028F00042F004022264020707D501F020023243AD
:1029000003D0226C42F008022264226C002A34D0E8
:10291000800604D5880602D5204601F031FC2068E7
:102920004069216CC0F38010090700D430B3204601
:1029300001F005FC2068416949061BD5416921F079
:1029400040014161A06BA8B158494163A06BFEF7FB
:10295000D5FC002811D0A06B416B01B0BDE8F04060
:10296000084783060FD58B060DD52046BDE8F840F5
:1029700001F006BC2046FFF793FFF8BD2046FFF7A5
:102980008FFF2564F8BD266B2023012E52D1C60689
:1029900050D5CE064ED5106850680090506940065C
:1029A0002AD5A16B086840680004000CEAD0A68D07
:1029B0008642E7D9E0858869202818D0D06820F4BD
:1029C0008070D0602068416921F001014161206878
:1029D000416921F04001416184F83E30256320685F
:1029E000C16821F01001C160A06BFEF763FCA08DEF
:1029F000E18D401A81B219E0A08DE18D401A81B2BB
:102A0000E08D0028BED00029BCD0D06820F49070A2
:102A1000D0602068426922F00102426184F83E30B1
:102A200025632068C26822F01002C2602046FFF7CA
:102A30000AFFF8BD05062BD50D0629D594F83D00F3
:102A40002128F6D1A068B0F5805F01D12069B0B12E
:102A5000206A411C2162216800784860E08C401E99
:102A60000004000CE084E4D12068C16821F08001FA
:102A7000C1602068C16841F04001C160F8BD206AB2
:102A80000088C0F308005060206A801C2062E5E7DF
:102A90004006F3D54806F1D5D168204621F0400123
:102AA000D16084F83D3000F014F9F8BD71400008A1
:102AB00070B5040004D094F83D00002510B106E084
:102AC000012070BD84F83C50204600F023F82420FB
:102AD00084F83D002068C16821F40051C16020469F
:102AE00001F0AAFB2068016921F49041016120688E
:102AF000416921F02A0141612068C16841F4005117
:102B0000C1602564202084F83D0084F83E00002048
:102B100070BD0000F0B585B0002406460094019415
:102B20000294039400682D49884254D12C4881694D
:102B300041F480418161816901F48041049181699E
:102B400041F0040181618069264D00F00400049089
:102B50004FF400700090022001900320039069461A
:102B60002846FEF70FFE2815CDE9000469462846E1
:102B70000294FEF707FE1D4D1B488027C5E900049F
:102B8000C5E902472C616C61AC612846EC61FEF737
:102B900071FD08B1FEF78CFBB5636E62134D1248F0
:102BA0004435143801C5102091C5104845F8104926
:102BB00044306C61AC61EC61FEF75CFD08B1FEF77E
:102BC00077FB75630022052125206E62FEF7B4FFB6
:102BD0002520FEF7A3FF05B0F0BD0000003801403E
:102BE0000010024000080140580002404C01002043
:102BF00090F83E30202B0ED159B152B190F83C30B4
:102C0000012B08D0012380F83C300023036301F03E
:102C10006FBB01207047022070477047704700006B
:102C20002DE9F843044690F83D001F4616460D4630
:102C300020284CD1C5B1BEB194F83C00012846D043
:102C4000012084F83C004FF00008C4F840802120A7
:102C500084F83D00FEF7A4FEA6848146E684A068C1
:102C6000B0F5805F03D004E00120BDE8F88320695F
:102C700028B12E465FF0000584F83C800EE0002667
:102C8000FAE78021204601F06BFBA0B9AEB116F83F
:102C9000010B21684860E08C401EE084E08C4B46CC
:102CA0004FF0000200970028EBD14FF04001204682
:102CB00001F056FB30B10320D7E735F8020BC0F323
:102CC0000800E6E7202084F83D000020CDE7022040
:102CD000CBE77047FEE7000088B0DFF80CB2DFF802
:102CE0000C92DFF80CA2002418254FF6FF7800BFE5
:102CF00003F03EF900F02AFC0021F0238722084669
:102D0000009400F0DFFB00F093FB0526761EF6B280
:102D100000F0F2FD0746024676A103A801F0ECFBA5
:102D20000021CDE90045434603AA0846029400F07D
:102D30006BFD0FB1002EE9D1FEF726F806AA03219C
:102D40000020FEF733F89DF81800552875D055205F
:102D50008DF818005946D9F80000FDF719FBFDF76A
:102D6000B6FC8DF81900BAF90000642190FBF1F06F
:102D70008DF81A0006AA03210020FEF723F800BFF1
:102D8000CDE90045464643465DA21E21002002943F
:102D900000F03AFDD9F80000FDF7C6FC02460B46EC
:102DA0005AA103A801F0A8FBCDE90045334603AAC8
:102DB0003C210020029400F027FDBAF9002056A122
:102DC00003A801F099FBCDE90045334603AA5A2137
:102DD0000020029400F018FDCDE90045334651A2D1
:102DE00078210020029400F00FFDFDF7C1FECDE92F
:102DF000004533464EA278210020029400F004FDE5
:102E0000FDF77CFFCDE9004533464CA27821002038
:102E1000029400F0F9FC02F091F8CDE90045334648
:102E200049A278210020029400F0EEFCFDF758FE44
:102E3000FEF7EEF9D8B14DE0FFE79DF91900411F0B
:102E40000F299DD89DF91A10142999DC11F1140F3E
:102E500096DBFDF726FC4E465946FDF7CBFA30606F
:102E60009DF91A0064225043AAF8000088E702F096
:102E7000C9F8384802683848016838A001F02CFBCE
:102E80004FF4C877384601F0B5FF3AA001F024FBB3
:102E9000384601F0AFFFCDE9004533463AA296210E
:102EA0000020029400F0B0FC384601F0A3FFCDE909
:102EB0000045334624A296210020029400F0A4FC91
:102EC000344802683448016834A001F005FB3846F4
:102ED00001F090FF03F0F0FC002002F07BFF4FF4C4
:102EE0007A7002F0A1F803E70000204154000020AE
:102EF000500000206D6178206572726F3A25640081
:102F00006C75783D6B782B62000000006B203D20D3
:102F1000252E31662020200062203D2025642020BF
:102F2000200000004169723732342E2E2E0000003E
:102F30005044502E2E2E2020200000004D5154547D
:102F40002E2E2E20200000002020202020202020B7
:102F5000200000002C0000202800002041542B4DB0
:102F6000495053544152543D222573222C25730D50
:102F70000A00000041542B4D434F4E4E4543543DF3
:102F8000312C3132300D0A007265636F6E6E6563ED
:102F900074000000200000201C00002041542B4D34
:102FA0005355423D22247379732F25732F25732F98
:102FB000636D642F726571756573742F2B222C30CD
:102FC0000D0A00001FB504460020009001900290F9
:102FD000039020890090012001900290032003902B
:102FE00069462068FEF7CEFB6089009069466068FC
:102FF000FEF7C8FB1FBD70B506460824002500F08B
:103000006AFF13E06806050E0021304600F051FF0C
:10301000022001F0FCFE0121304600F04AFF0120B1
:1030200001F0F5FE304600F04DFF0543641EE4B2AA
:10303000E8D20021304600F03CFF304600F065FF4A
:10304000284670BD10B50446002100F055FF012050
:1030500001F0DDFE0121204600F02BFF012001F0F0
:10306000D6FE0021204600F024FFBDE810400120DC
:1030700001F0CDBE70B50C460646082519E000BF2C
:1030800000F017FF022001F0C2FE04F0800130467C
:1030900000F032FF012001F0BAFE6006040E0120AC
:1030A00001F0B5FE0121304600F003FF012001F0E0
:1030B000AEFE6D1EEDB24FF000013046E0D200F0E2
:1030C000F8FEBDE87040022001F0A1BE10B5044634
:1030D000012100F011FF012001F099FE012120469D
:1030E00000F0E7FE012001F092FE0021204600F0F2
:1030F000E0FEBDE81040022001F089BE10B5044694
:10310000012100F0F9FE022001F081FE012120469C
:1031100000F0CFFE012001F07AFE0021204600F0F1
:10312000EBFE012001F073FE0021204600F0C1FEFD
:10313000BDE81040012001F06ABE10B50446002130
:1031400000F0B7FE022001F062FE0021204600F0F0
:10315000D3FE012001F05BFE0121204600F0A9FE14
:10316000012001F054FE0121204600F0C5FEBDE81B
:103170001040012001F04BBE70B50546052400F05B
:10318000AAFE0121284600F094FE05E0641EA4B2C8
:10319000012001F03CFE84B1284600F093FE002897
:1031A000F4D1284600F0B1FE0021284600F081FE4F
:1031B000022001F02CFE002070BD284600F0A5FE84
:1031C0002846FFF7BAFF012070BD00002DE9F0414D
:1031D0001D4617460C468046069EFFF78FFF600689
:1031E000010E4046FFF746FF4046FFF7C5FF28B1F6
:1031F0004046FFF7A2FF0120BDE8F0813946404676
:10320000FFF738FF4046FFF7B7FF4046FFF776FF6E
:10321000012000EB4400C1B24046FFF72BFF4046BF
:10322000FFF7AAFF00246F1E0AE000BFFFF7E3FECE
:103230003055BC4202DA4046FFF704FF641CE4B29A
:10324000AC424046F2D3FFF741FF4046FFF775FF1F
:103250000020D1E770B516460C460546FFF74EFF35
:103260006006010E2846FFF705FF2846FFF784FF9A
:1032700031462846FFF7FEFE2846FFF77DFF284629
:10328000FFF73CFF012000EB4400C1B22846FFF7E6
:10329000F1FE2846FFF770FF2846FFF7ACFE044614
:1032A0002846FFF713FF2846FFF747FF204670BD6B
:1032B0002DE9F0411D4617460C468046069EFFF755
:1032C0001DFF6006010E4046FFF7D4FE4046FFF7A3
:1032D00053FF28B14046FFF730FF0120BDE8F081E1
:1032E00039464046FFF7C6FE4046FFF745FF00243B
:1032F00008E0315D4046FFF7BDFE4046FFF73CFF6A
:10330000641CE4B2AC42F4D34046FFF716FF012040
:1033100001F07DFD0020E1E72DE9F0411D46164654
:103320000C460746FFF7EAFE6006010E3846FFF737
:10333000A1FE3846FFF720FF28B13846FFF7FDFE13
:103340000120BDE8F08131463846FFF793FE38464C
:10335000FFF712FF29463846FFF78CFE3846FFF785
:103360000BFF3846FFF7E9FE012001F050FD002079
:10337000E7E700002DE9F04100241B4D1B4E01271B
:1033800008B12F7001E0287848B110213046FEF7CF
:10339000F5FAA8B120213046FEF7F0FA80B10320FB
:1033A00001F042FE10213046FEF7E8FA28B1202154
:1033B0003046FEF7E3FA00B12F702046BDE8F081F9
:1033C000032001F031FE10213046FEF7D7FA48B154
:1033D00020213046FEF7D2FA0028EED10224002048
:1033E0002870EAE70124FAE7010000200008014004
:1033F00008B5002001250D4C8DF8000002260020A4
:10340000FFF7B8FF012802D002280BD102E08DF8A7
:10341000005001E08DF80060012300226946206819
:1034200001F0D0FE012001F0FFFDE8E74C00002094
:1034300000B585B0002001900A48816941F004017F
:1034400081618069694600F004000490302000909A
:1034500001200290022003900348FEF793F905B083
:1034600000BD000000100240000801402DE9F041BD
:1034700007461C4615460E462A2000F0EDF9343763
:10348000B8B200F0DEF93435A8B200F0DAF92B203A
:1034900000F0E2F92836B0B200F0D3F92834A0B237
:1034A00000F0CFF9BDE8F0412C2000F0D5B910B5FF
:1034B00014460B460246FFF7D9FF2046BDE81040F0
:1034C00000F0BFB92DE9F04780461F46581E83B271
:1034D0001646501E82B20C464046DDF82090FFF79B
:1034E000C5FF0AE0454604E0484600F0AAF96D1C15
:1034F000ADB2B542F8D3641CA4B2BC42F2D3BDE86D
:10350000F087000030B585B0002002900D48816939
:1035100041F00801816180694FF4FC7400F00800FB
:1035200004900120CDE900400320074D0390694637
:103530002846FEF727F9012221462846FEF72BFAF6
:1035400005B030BD00100240000C014010B5FFF77F
:10355000D9FF694C002220212046FEF71CFA642086
:1035600001F048FC012220212046FEF714FA6420D5
:1035700001F040FC012211022046FEF70CFA642003
:1035800001F038FC112000F067F9782001F032FCDE
:10359000362000F061F9002000F072F93A2000F0C6
:1035A0005BF9052000F06CF9B22000F055F90C2011
:1035B00000F066F90C2000F063F9002000F060F9DB
:1035C000332000F05DF9332000F05AF9B72000F005
:1035D00043F9352000F054F9BB2000F03DF91920E3
:1035E00000F04EF9C02000F037F92C2000F048F927
:1035F000C22000F031F9012000F042F9C32000F0B0
:103600002BF9122000F03CF9C42000F025F920200D
:1036100000F036F9C62000F01FF90F2000F030F955
:10362000D02000F019F9A42000F02AF9A12000F020
:1036300027F9E02000F010F9D02000F021F9042053
:1036400000F01EF90D2000F01BF9112000F018F910
:10365000132000F015F92B2000F012F93F2000F0A4
:103660000FF9542000F00CF94C2000F009F9182053
:1036700000F006F90D2000F003F90B2000F000F92E
:103680001F2000F0FDF8232000F0FAF8E12000F000
:10369000E3F8D02000F0F4F8042000F0F1F80C205A
:1036A00000F0EEF8112000F0EBF8132000F0E8F83D
:1036B0002C2000F0E5F83F2000F0E2F8442000F074
:1036C000DFF8512000F0DCF82F2000F0D9F81F209F
:1036D00000F0D6F81F2000F0D3F8202000F0D0F83A
:1036E000232000F0CDF8212000F0B6F8BDE810400E
:1036F000292000F0B1B80000000C01402DE9FF4F77
:1037000081B00446DDF83C9000904FEA59074FF035
:103710000008780700D0012000EBD70000FB09FB70
:10372000203AD0B20390029802994844401E83B2D6
:10373000E019401E82B22046FFF798FE002553E0B4
:10374000B9F10C0F2AD0B9F1100F2ED0B9F1180F22
:103750002ED0B9F1200F49D12749039801EB8010F1
:10376000002610F805A0109800284FF0010000FA7C
:1037700006F000EA0A0022D020B12046049A0299FD
:10378000FFF795FE641C0098A4B2201AB84225D118
:103790000298009C401C80B2029023E003981749D5
:1037A00000EB400001EB8000DAE71549039803E0E5
:1037B0000398144900EB400001EB0010D0E708B17A
:1037C000049800E00E9800F03CF808F10100C0B247
:1037D000B0FBF7F1804607FB118050B1761CF6B2C2
:1037E000082EC0D36D1CADB25D45A9D305B0BDE8B0
:1037F000F08F4FF00008F5E778860008446A00086B
:10380000B86E0008A87400082DE9FE4F9946DDE95E
:103810000D6714468A460546DDF830800CE0CDF889
:1038200000804B4651462846CDE90167FFF766FF09
:1038300005EB560085B2641C2278002AEFD1BDE862
:10384000FE8F10B50446000A00F01AF8E0B2BDE899
:10385000104000F015B8000070B5084C0546002275
:1038600040212046FEF797F8284600F009F8204648
:10387000BDE8704001224021FEF78DB8000C0140E8
:1038800070B5144E0546002280213046FEF783F8BD
:103890000024002208213046FEF77DF8280601D5D5
:1038A000012200E0002210213046FEF774F80122C8
:1038B00008213046FEF76FF86806641C050EE4B276
:1038C000082CE6D33046BDE8704001228021FEF787
:1038D00062B80000000C0140064D4FF400544FF454
:1038E000FA7621462846FEF74EF8304601F09CFB5A
:1038F000F7E700000010014038B51A480524816937
:1039000041F008018161806900F0080000901648CC
:10391000FFF758FB04E06420FDF722FF641EE4B2C9
:10392000002000F043F810B1002CF4D115E0A4B150
:103930000021012000F042F86420FDF711FF8021F2
:10394000022000F03BF86420FDF70AFF022000F09F
:103950002DF8000603D4022038BD012038BD002018
:1039600038BD0000001002401000002070B5054670
:10397000032000F01BF80446042000F017F801466D
:103980002209200701F00F0141EA10609040FCF786
:1039900091FE044A044BFCF712FEFCF7D8FE2860A7
:1039A00070BD00000AD7A3703D0AA73F02464A2116
:1039B0000148FFF74FBC0000100000200B460246F4
:1039C0004A210148FFF7A8BC100000200D4808B5A7
:1039D000416941F0010141614069002200F00100AC
:1039E000009005210E20FEF7A7F80E20FEF796F8AE
:1039F000002205210F20FEF79FF8BDE808400F20A8
:103A0000FEF78CB80010024030B585B00020009061
:103A10000190029003901248816941F01001816188
:103A2000816901F010010491816941F00401816113
:103A30008069012200F004000A4D540304902146DD
:103A40002846FDF7A8FF01210220CDE90210CDE9AB
:103A5000004169462846FDF795FE05B030BD0000DF
:103A60000010024000100140094810B507490160EC
:103A70000021416040F6B8318160FDF797FF0028D2
:103A800003D0BDE81040FDF713BC10BD003000406E
:103A9000E80000201CB50024184801941649009441
:103AA0000160611E41604FF480718160FEF764FC2B
:103AB00008B1FDF7FDFB8DF804408DF805408DF849
:103AC0000640012201A90D48FEF722FD08B1FDF7CD
:103AD000EFFB01208DF800008DF801008DF8020049
:103AE00002468DF8034069460448FEF7AFFC002803
:103AF00001D0FDF7DDFB1CBD00280040F4000020D4
:103B00000C4810B50A4901604FF41651416000217C
:103B100081600C22C160C0E904128161C161FEF7BD
:103B2000C7FF002803D0BDE81040FDF7C1BB10BDA2
:103B3000003801400801002096B000242F4EDFF825
:103B4000C080DFF8C090DFF8C0A018254FF6FF7BDB
:103B5000CDF80C4002F00CFA03A8FFF707FF02F0C3
:103B6000ABFEB6F90000FCF79CFD07460399D8F8B8
:103B70000000FCF70DFC3946FCF7B2FB00EB090234
:103B8000039052451BD2FCF7BBFD02461FA104A8BF
:103B900000F0B2FC04A801F0A9F90398FCF7C4FDF9
:103BA00002460B4627A112A800F0A6FCCDE900456D
:103BB0005B4612AA782100200294FFF725FE00221E
:103BC00015A92448FEF76CFB9DF8560000909DF85F
:103BD00055309DF8542020A112A800F08DFCCDE9AD
:103BE00000455B4612AA962100200294FFF70CFEC6
:103BF0004FF4FA7001F018FAACE700005000002012
:103C000054000020FFFF37BDFF4F7B057B5C323245
:103C100069645C32323A20312C5C323264705C323E
:103C2000323A207B5C32326C696768745C32323ABB
:103C3000205B7B5C3232765C32323A25647D5D7D7E
:103C40007D0000006C7578203D20252E31662020F7
:103C500020000000F4000020253032643A25303284
:103C6000643A25303264202020000000FEE7FEE7A1
:103C7000010901EB810100F00F0000EB4100C0B22F
:103C80007047002102E00A38C0B2491C0A28FAD263
:103C9000090740EA116070472DE9F041044600250C
:103CA000C07B627BA37B42E0012A16D0032A14D09A
:103CB000052A12D0072A10D0082A0ED00A2A0CD0C2
:103CC0000C2A0AD0042A10D0062A0ED0092A0CD0B9
:103CD0000B2A0AD0022A0DD028E01F2B0CD30C2A65
:103CE00005D101221346401C20E01E2B04D30123E2
:103CF000521C1BE01C2B02D203F1010316E011D170
:103D000083B29E0710D16426B3FBF6F706FB173685
:103D100036B94FF4C876B3FBF6F706FB17331BB979
:103D20001D2303E01D2B01D1032201236D1C8D42B5
:103D3000BAD3D1B2E0736173DAB2A27300F066F85D
:103D40002073BDE8F08170B50446FDF729FE0546F5
:103D50004FF47A7606E0FDF723FE401BB04201D90E
:103D6000032070BD206840688006F4D52068416853
:103D700041F010014160002070BD000070B50446A4
:103D80000068416821F010014160FDF709FE054619
:103D90004FF47A7607E000BFFDF702FE401BB04209
:103DA00001D9032070BD206840688006F4D500204A
:103DB00070BD0168086A496A89B241EA00407047EB
:103DC000006881698AB2C1698BB2816989B28A420D
:103DD00003D0C06961F31F40704743EA0240704757
:103DE00008B5002300938DF800008DF801108DF8C0
:103DF00002201A4669460448FEF78AFB002801D0D3
:103E0000FDF756FA08BD0000F4000020F0B5642468
:103E1000C1EBC1030927A500072603EB0113032902
:103E2000B3FBF7F100F5FA60114401440AD2401ED9
:103E3000B0FBF4F201EB9001B0FBF5F0891A0844F5
:103E4000001D08E0B0FBF4F201EB9001B0FBF5F0CF
:103E5000891A0844801CB0FBF6F106FB1100C0B2C1
:103E6000F0BD70B50D4606460024FFF76CFF48B95B
:103E70003168280C08623168A8B248623046FFF702
:103E80007DFF00B10124204670BD70B50D46064689
:103E90000024FFF758FF48B93168280C8861316861
:103EA000A8B2C8613046FFF769FF00B1012420467F
:103EB00070BD4289406811B10169114300E01104ED
:103EC0000161704710B501890068FDF757FD0128B1
:103ED00000D0002010BD1FB500210091019102917A
:103EE000039101890091012102910321039100684E
:103EF0006946FDF747FC1FBD0289006811B10169E1
:103F0000114300E01104016170471FB500210091C9
:103F100001910291039101890091112101910321E5
:103F2000039100686946FDF72DFC1FBD10B55020B8
:103F300080F31188BFF34F8FBFF36F8F02F0E0FB68
:103F400018B104494FF080500860002080F31188B8
:103F500010BD000004ED00E070B596B02821684661
:103F6000FCF779F914210AA8FCF775F918210FA8B4
:103F7000FCF771F901250A2000901020CDE90450CA
:103F800000244FF460100226CDE90840CDE9065622
:103F90006846FDF7F5FF08B172B6FEE70F20CDE9E0
:103FA0000A064FF48060CDE90C4002210AA80E9465
:103FB000FDF7DAFE08B172B6FEE74FF40070CDE906
:103FC0000F500FA8FDF75AFE002801D072B6FEE789
:103FD00016B070BD704700000148FEF774BB0000CA
:103FE000C4020020F0B502681C4B1D4D1D4E1E4F33
:103FF0001E4C4FF0804C984209D0A04207D060453B
:1040000005D0A84203D0B04201D0B84204D122F07A
:10401000700E4A6842EA0E02984209D0A04207D0C8
:10402000604505D0A84203D0B04201D0B84203D1C8
:1040300022F44075CA682A434D6922F080022A435F
:1040400002608A68C2620A688262984201D0A04215
:1040500001D10969016301214161F0BD002C0140DA
:104060000004004000080040000C00400034014003
:1040700010B5406A0021C185C184FEF711FC10BD56
:1040800070B5446A2068406994F83D10C0F3C010D0
:104090000025212904D118B1E584204600F067F8F5
:1040A0002068406994F83E10C0F38010222904D1A2
:1040B00018B1E585204600F042F8206C40F0100071
:1040C00020642046FEF7ECFB70BD10B50146406A47
:1040D0000968096889061BD40021C1850168CA687E
:1040E00022F48072CA6001684A6922F001024A61C2
:1040F00001684A6922F040024A61202180F83E109E
:10410000016B012904D10168CA6822F01002CA605B
:10411000016B012902D0FEF780FD10BD818DFEF7F5
:1041200092FB10BD10B5406A016B012902D0FEF769
:1041300075FD10BD818D4908FEF785FB10BD016836
:10414000CA6822F49072CA6001684A6922F00102CA
:104150004A61016B012904D10168CA6822F010028A
:10416000CA60202180F83E10002101637047016879
:10417000CA6822F0C002CA60202180F83D10704752
:1041800008B590F83E10222901D0022008BD8268AF
:104190004FF480539A4201D1016921B1816A9A4258
:1041A0001BD04AB10AE00268816A5268C2F3080271
:1041B0000A80816A891C08E0026972B1026852684B
:1041C00002F07F020A70816A491C8162C18D491E1A
:1041D0000904090CC18503D019E002685268F1E7AF
:1041E0000168CA6822F02002CA600168CA6822F425
:1041F0008072CA6001684A6922F001024A61202186
:1042000080F83E10016B012903D0FEF706FD002067
:1042100008BD002101630168CA6822F01002CA606B
:1042200001680A68D20602D50A6849680091818D42
:10423000FEF709FBEBE7000070B504460068016972
:10424000E26821F44051114301612169A0680843EB
:10425000616908432168CA6841F20C639A430243CA
:10426000CA6020684169A26921F44071114341612B
:104270001E492068884202D1FDF73CFE01E0FDF7AF
:1042800029FE00EBC00101EB001260686421800090
:10429000B2FBF0F3B3FBF1F36FF018067343B2FB1C
:1042A000F0F5B2FBF0F605EB8305322303EB0515C1
:1042B000B5FBF1F5B6FBF1F605F0F00505EB0615DB
:1042C000B2FBF0F6B2FBF0F0B0FBF1F06FF01802C9
:1042D000504306EB800003EB0010B0FBF1F02168C7
:1042E00000F00F002844886070BD000000380140D5
:1042F00038B5816282850025134604460564222074
:1043000084F83E00A26B13489062A26B1248D06200
:10431000A26B12481063A06B0A4645632168A06B2C
:10432000091DFDF7E5F9206801684168009184F8EE
:104330003C50C16841F48071C1602068416941F01E
:10434000010141612068416941F040014161002063
:1043500038BD0000CB40000825410008814000081E
:104360002DE9F041984617460E460446069D1DE08D
:10437000681C1BD02DB1FDF713FBA0EB0800A84271
:1043800014D92068C16821F4D071C16020684169E6
:1043900021F001014161202084F83D0084F83E00B5
:1043A000002084F83C000320BDE8F081206800680C
:1043B00036EA000004D00020B842D9D00020F3E74C
:1043C0000120F9E7144810B500680168C943C9061F
:1043D0001CD4124A012111706FF0100101600E48C7
:1043E000FEF732FA78210E48FBF735FF0C490C48EE
:1043F0007831FBF749FF0A4878217830FBF72BFF2B
:104400000749782278310448FEF7F2FBBDE81040F6
:104410000148FEF747BA0000080100200000002014
:10442000D4010020FEE7000010B50121002208465B
:1044300000F08EFE194C1A4A0021E061194800F084
:1044400001FF174A206024320021174800F0FAFECD
:10445000134A606048320021144800F0F3FE104A0D
:10446000A0606C320021124800F0ECFE0C4AE060C3
:10447000B43200210F4800F0E5FE094A6061903235
:1044800000210D4800F0DEFE054A2061D8320021EF
:104490000A4800F0D7FEA06110BD000030000020E7
:1044A00060A30008D92C0008C1440008D9380008CE
:1044B000F1330008393B0008E10D000849110008FC
:1044C000FFF7D2FA0348FDF79EFA642000F0ACFD36
:1044D000F8E70000E80000200FB4054B10B503A971
:1044E000044A029800F0FEF810BC5DF814FB0000CE
:1044F0003D4E0008E40000200FB4084B10B504A99D
:1045000002AA039800F0EEF8044602A9002000F089
:104510006CFC204610BC5DF814FB0000EB4D00085D
:104520000907090E002804DB00F1E02080F80014E0
:10453000704700F00F0000F1E02080F8141D704774
:1045400002E008C8121F08C1002AFAD1704770475C
:10455000002001E001C1121F002AFBD170470000BA
:104560002DE9FF5F82B00021DDE90430020DDDF8A6
:1045700040B0034318D044F61050A2F2FF32424339
:104580001514119801281FD0A5EB0B00401C5FEA01
:10459000000A4FF000064E4FDFF83891B046504603
:1045A00015D5CAF1000413E0119801244AA301288B
:1045B00001D16FEA0B010298119AC0E90031C0E9FC
:1045C000024206B0BDE8F09FCBF10000DFE70446F1
:1045D0000021404A491842EB0450CDE9001012E096
:1045E000E00707D032463B4640464946FBF7E7FF27
:1045F0008046894632463B4610461946FBF7DFFFA8
:1046000006460F466410002CEAD1DDE90401DDE91D
:104610000023BAF1000F06DAFBF7D1FF42464B4602
:10462000FBF7CDFF05E0FCF7AAF942464B46FCF745
:10463000A6F904460E460022284BFCF727FA03D8B9
:104640004FF0FF30014607E00022254B204631465F
:10465000FBF70EFFFCF702FA102409E0002C0ADB3E
:104660000A220023FCF7A5F8039B30321A55641E7A
:1046700050EA0102F2D1641C039AC4F111031444FC
:10468000119A012A03D0012208430DD10AE0084300
:1046900004D000204FF0110B119072E7A3EB0B0533
:1046A0006D1E0DE05B4504DD4FF0000205F10105D4
:1046B00004E003DA4FF00002A5F10105002AECD076
:1046C00002981199C0E90231C0E9004579E700007C
:1046D000000014400000F03F300000000000F043F4
:1046E0000000E03F2DE9FF4F95B09A468846064608
:1046F0000025EEE1252877D100242746F94A01213B
:10470000039400E0044316F8013F203B01FA03F054
:104710001042F7D130782A2811D06FF02F0330786B
:10472000A0F13002092A16D8039A44F0020402EBE1
:10473000820203EB42021044761C0390EFE758F824
:10474000042B0392002A03DA504244F400540390ED
:1047500044F00204761C30782E2816D116F8010F8A
:1047600044F004042A280DD06FF02F023078A0F115
:104770003003092B09D807EB870302EB4303C71863
:10478000761CF3E758F8047B761C30786C280FD041
:1047900006DC4C2817D068280DD06A2814D104E014
:1047A000742810D07A280FD10DE044F400140AE0E8
:1047B00044F4801401E044F440147278824202D13F
:1047C00004F58014761C761C307866280BD013DC38
:1047D000582877D009DC002875D04528F6D046281F
:1047E000F4D047281AD193E118E0632835D0642823
:1047F00079D0652812D18BE1702873D008DC672846
:10480000F1D069286FD06E280DD06F2806D1ACE0AA
:1048100073282CD0752874D0782853D05246179915
:1048200090476D1C54E1C4F30250022809D00328BC
:104830000DD0D8F8001004280DD00D6008F1040840
:1048400046E1D8F80010EA17C1E90052F6E7D8F8B7
:1048500000100D80F2E70D70F0E718F8041B8DF8DA
:10486000001000208DF80100EB46012003E058F80D
:1048700004BB4FF0FF3061074FF0000102D40DE0A0
:1048800009F101018946B9420FDA8145F8DB1BF8CD
:1048900009100029F4D108E009F10101894681429B
:1048A000FADB1BF809100029F6D103985346A0EB58
:1048B000090721463846179A00F080FA284400EB91
:1048C000090507E044E008E10DE01BF8010B524642
:1048D00017999047B9F10109F7D253462146384656
:1048E000179AF2E039E00A21C4F302524FF0000BAC
:1048F0000091022A06D058F8040BC117032A09D0E8
:104900000AE023E008F1070020F00702F2E80201C4
:10491000904605E000B2C117042A01D140B2C11788
:10492000002906DA0A460021404261EB02012D22ED
:1049300002E0220504D52B228DF80420012203E099
:10494000E20701D02022F7E7914657E00A2100E074
:1049500010214FF0000B00910BE010214FF0000BE5
:1049600044F004040827009103E008204FF0000BF6
:104970000090C4F30252022A05D058F8040B00211B
:10498000032A08D008E008F1070020F00702F2E847
:104990000201904603E080B2042A00D1C0B24FF079
:1049A000000922072AD53278702A07D0DDF800C026
:1049B0008CF0100C5CEA0B0C05D00EE040228DF858
:1049C0000420012208E050EA010306D030238DF8CC
:1049D00004308DF8052002229146009B83F00803E5
:1049E00053EA0B030AD150EA010201D1620705D54F
:1049F00030228DF804204FF001097F1E3278582AAA
:104A000004D039A20C920CAA02920BE03BA2F9E767
:104A10005B46009AFBF7CDFE0C9B9B5C029A521EF4
:104A20000292137050EA0102F2D1029804A9081A06
:104A300000F1200B600702D524F4803400E0012748
:104A40005F4502DDA7EB0B0000E0002000EB0B014F
:104A5000009003984944401A0390E00306D453465B
:104A60002146179A039800F0A9F90544002706E0AB
:104A700001A85246C05D179990476D1C7F1C4F4599
:104A8000F6DBE0030CD553462146179A039800F055
:104A900095F9054404E030205246179990476D1C63
:104AA0000099481E00900029F5DC08E00298029960
:104AB00052460078491C0291179990476D1CBBF132
:104AC0000001ABF1010BF1DC5BE100F065F905449D
:104AD000761C307800287FF40DAE19B02846BDE86A
:104AE000F08F000009280100303132333435363779
:104AF000383961626364656600000000303132332A
:104B000034353637383941424344454600000000C9
:104B1000600700D4062708F1070020F00700F0E83E
:104B20000223804603F0004C5FEA0C0001D097A0FE
:104B300009E0200501D596A005E0E00701D095A089
:104B400001E0AFF24C001390307823F00043652869
:104B50000CD006DC452809D046281DD047287FD137
:104B60003BE0662818D067287AD136E00021112F63
:104B700001DB112000E0781CCDE9000104A90CA89C
:104B8000FFF7EEFCDDE90D010C9A4FF0000B07F189
:104B90000109109200914EE04FF000400097CDE9DE
:104BA000011004A90CA8FFF7DBFCDDE90D020C9B4A
:104BB0000F994FF0000B91461093009211B9791C98
:104BC00000EB0109B7EB090003D4C0F1FF3B07F18B
:104BD0000109A9EB0700019042E0012F00DA01274B
:104BE0000021112F01DD112000E03846CDE9000140
:104BF00004A90CA8FFF7B4FCDDE90D010C9A0091A3
:104C00004FF0000BB946109221070FD4009A4A4585
:104C100003DA914601E0A9F10109B9F1010F05DDBF
:104C2000109AA9F10101515C3029F4D0B84202DA9E
:104C300010F1040F03DA0121CDE9011010E0002882
:104C400003DC8344A9EB000102E0411C494500DD7F
:104C50008946A0EB0B00401C01904FF000400290F1
:104C6000200705D40198484502DB4FF0FF30019042
:104C700000208DF84B0002980DF14B07B0F1004F6A
:104C800025D002200C902B200D90029800280CDAE1
:104C9000404202902D200D9007E00A210298FBF778
:104CA00072FD3031029007F8011D0C99481E0C90DE
:104CB0000029F2DC02980028EFD1791E0D980870C7
:104CC000307800F0200040F0450007F8020D11A8F0
:104CD000C01BC01D02901398007800B1012000EBAA
:104CE0000901019801EBE071029801440398401A10
:104CF000401E0390E00306D453462146179A0398BA
:104D000000F05CF805441398007818B152461799E2
:104D100090476D1CE00323D553462146179A03980C
:104D200000F04CF805441BE0BBF1000F07DB0098D6
:104D3000584504DD1098179910F80B0001E01799F9
:104D400030205246904701980BF1010B401E05F1AF
:104D50000105019004D12E205246179990476D1CF1
:104D6000B9F10001A9F10109DEDC05E017F8010B3A
:104D70005246179990476D1C0299481E02900029CF
:104D8000F4DC53462146179A03989EE62D00000056
:104D90002B000000200000002DE9F0410446002512
:104DA0001E461746880404D405E039462020B04743
:104DB0006D1C641EF9D52846BDE8F0812DE9F0414F
:104DC000044600251E469046C80301D5302700E062
:104DD0002027880404D505E041463846B0476D1CBD
:104DE000641EF9D52846BDE8F0810A68531C0B60A3
:104DF0001070704770B5054600244FF47A7603E0D2
:104E0000304600F004F8641CAC42F9D370BD70B5B4
:104E10004FF0E02300215C699A698501986990420E
:104E2000FCD002D2A2EB000202E0A4EB0006324466
:104E300011440246A942F1D370BD000013B54FF6EC
:104E4000FF73012269460248FDF7EAFE00981CBD87
:104E500008010020FCF7E6FDFFF77EF8FEF7D4FD21
:104E6000FEF7B4FDFEF716FEFEF74AFE782208496B
:104E70000848FDF7BDFE07480068C16841F0100111
:104E8000C16000F0EBF8FFF7CFFA00F003F9FEE79E
:104E90004C0200200801002008B503460648009196
:104EA000D0E9001205A0FFF717FBBDE808404FF45A
:104EB000C870FFF79FBF00001C00002041542B4D1D
:104EC0005055423D22247379732F25732F25732F5C
:104ED000636D642F726573706F6E73652F25732217
:104EE0002C302C302C222573220D0A0010B50346DD
:104EF0000548D0E9001205A0FFF7EEFABDE8104022
:104F00004FF4C870FFF776BF1C00002041542B4DB2
:104F10005055423D22247379732F25732F25732F0B
:104F200064702F706F73742F6A736F6E222C302C25
:104F3000302C222573220D0A0000000070B5144C9D
:104F400014A0D4E90021A368FFF7C6FA4FF4C8758E
:104F50002846FFF74FFF00F055F82846FFF74AFFB5
:104F6000D4E9031212A0FFF7B7FA2846FFF742FF71
:104F700015A0FFF7B1FA2846FFF73CFFD4E900126D
:104F800016A0FFF7A9FA2846BDE87040FFF732BF28
:104F90001C00002041542B4D434F4E4649473D22B3
:104FA0002573222C222573222C222573220D0A0020
:104FB00041542B4D495053544152543D22257322A4
:104FC0002C25730D0A00000041542B4D434F4E4ECB
:104FD0004543543D312C3132300D0A0041542B4DA4
:104FE0005355423D22247379732F25732F25732F38
:104FF000636D642F726571756573742F2B222C306D
:105000000D0A000010B504A0FFF766FABDE81040D5
:10501000C820FFF7EFBE000041542B4D4950434CD0
:105020004F53450D0A00000010B5EFF3058149B953
:10503000EFF3108131B908490968022905D1EFF36E
:10504000118111B16FF0050403E0002408B100F0F4
:105050009BFE204610BD0000B8000020EFF3058045
:1050600058B9EFF3108040B909490868022801D007
:1050700030B109E0EFF3118030B16FF005007047F7
:1050800001200860002070474FF0FF30704700009B
:10509000B800002010B5EFF3058060B9EFF3108081
:1050A00048B90B490868022802D0012806D00BE055
:1050B000EFF3118040B16FF0050010BD02200860D1
:1050C00000F012FF002010BD4FF0FF3010BD0000B7
:1050D000B8000020F8B51D466FF003026FF002061D
:1050E0004FF00004EFF305834BB9EFF3108333B9AE
:1050F000154B1B68022B17D1EFF31183A3B1F0B14D
:10510000E9B1E5B9002200926A4601F005FA0128EA
:1051100017D10098B0B10D494FF080500860BFF32F
:105120004F8FBFF36F8F0DE048B141B12A4601F0B8
:1051300057F9012806D025B16FF0010402E01446AA
:1051400000E034462046F8BDB800002004ED00E041
:10515000F8B514464FF00005EFF305826ABBEFF394
:10516000108252BB164A1268022A02D1EFF3118252
:105170001ABB10B309B3ACB1D4E902326BB1502AF7
:105180001BD32269CAB1676900FB01F6B74214D389
:105190000025009500F09EFF07E072B9226962B910
:1051A000626952B9002200F071FF050005D00CB110
:1051B000216800E0002100F0B1FD2846F8BD0000A4
:1051C000B8000020F8B51D466FF003026FF002062C
:1051D0004FF00004EFF305834BB9EFF3108333B9BD
:1051E000164B1B68022B18D1EFF31183ABB100B340
:1051F000F9B1F5B90022134600926A4601F092F81F
:10520000012818D10098B8B10D494FF080500860BE
:10521000BFF34F8FBFF36F8F0EE050B149B1002342
:105220002A4600F0CFFF012806D025B16FF0010417
:1052300002E0144600E034462046F8BDB8000020E5
:1052400004ED00E0F0B585B04FEA01034FF0000433
:10525000EFF305810394A1BBEFF3108189BB2149D2
:105260000968022902D1EFF3118151BB48B38026AE
:1052700018218DF8104004AD42B3176807B13D46C0
:1052800097691FB139467F1E382F02D21779FF0761
:1052900002D0002005B0F0BD576907B1BE08D2F8B2
:1052A00008C0BCF1000F0DD0D4685C2C18D3126973
:1052B0003AB137B18DE806103246294601F0E1F9DE
:1052C00003900DE0D7685FB912694AB903AACDE926
:1052D0000012B2B2294601F0A7F9012800D00394C8
:1052E0000398D7E7B80000202DE9F041134C0F4692
:1052F000054666692068001D00F016FC681C07D191
:1053000037B12168BDE8F0410D48091D00F05CBCD3
:1053100020683544B5424560216805D2A068BDE8E3
:10532000F041091D00F038BC6068091D00F034FC34
:10533000206B854200D22563BDE8F0816800002023
:10534000FC0700202DE9F041054600F049FC2D4CFA
:105350002069401C206120682B4F10B1E06930B3F8
:105360002BE025602069012827D1002606EB860066
:1053700007EB800000F002FC761C382EF6D32348A1
:1053800000F0FCFB2148143000F0F8FB1F482830E7
:1053900000F0F4FB1D483C3000F0F0FB1B4850309F
:1053A00000F0ECFB194860601430A06005E0206854
:1053B000E96AC06A884200D82560E06A401CE06261
:1053C0006864E86AA169884200D9A06100EB8000A6
:1053D00007EB8000291D00F0F7FB00F021FCE069DD
:1053E00000280CD02068E96AC06A884207D20849C0
:1053F0004FF080500860BFF34F8FBFF36F8FBDE851
:10540000F0810000680000204C030020AC07002061
:1054100004ED00E038B500F0E3FB104CA068C8B91B
:105420000F4800F0ABFB0E48143000F0A7FB0C480F
:105430002060143060600A4B00202833009003F194
:10544000500210210A2000F045FEA06010B105A115
:1054500000F064FCBDE8384000F0E2BBA40000208E
:1054600010080020546D72510000000030B4026C2E
:105470000B46002A0BD0C1681144C1604468A142A8
:1054800001D30168C16030BC1846FAF7CBBE30BC0E
:1054900070472DE9F041856B174604460026026CE3
:1054A00082B1C7B1E068FAF7BDFEE168206C091A65
:1054B000E1602268914202D26168081AE060022F1E
:1054C00016D017E02068A8B9606801F07DF906469B
:1054D000002060600EE0A068FAF7A4FE216CA068CE
:1054E0000844A0606168884204D32068A06001E09D
:1054F00005B16D1E6D1CA5633046BDE8F08110B589
:10550000044690F8590058B101280CD002280FD059
:10551000502080F31188BFF34F8FBFF36F8FFEE7EA
:10552000206B00F091FB2046BDE8104000F08CBBE2
:1055300010BD000010484FF42051420706D0C01D96
:105540000D4920F00700411AC1F520510B4A0023F4
:105550000144C2E900030839103A21F00701116043
:105560004B600B600B1AC0E9001393604FF00040D2
:105570005360D06070470000E00F0020CC00002096
:10558000144E154CA6F29C474FF08058DFF84C9013
:1055900012E000BF00F024FBF068C568281D00F091
:1055A000C3FA2069401E2061E068401EE06000F000
:1055B00037FB2846FFF7A3FFE0680028EAD13868E8
:1055C0000128F9D9C9F80080BFF34F8FBFF36F8F5F
:1055D000F2E70000E80700206800002004ED00E08A
:1055E00070B51D46049C51B1C4F80020C4E90F01F8
:1055F0000121204600F0A2FD84F84C5070BD2460CB
:10560000F4E72DE9F0470E46DDE9098417468246A6
:1056100091009946089DA522206BFAF715FE6FF0C0
:105620000301206B01EB8701084420F0070778078E
:1056300007D0502080F31188BFF34F8FBFF36F8FD7
:10564000FEE72218315C82F83410315C11B1401C45
:105650001028F6D3002684F84360382D00D3372570
:10566000E562C4E91356201D00F093FA04F1180016
:1056700000F08FFA2461C5F138006462A0616665AC
:1056800084F858604A465146384600F03BFA20609C
:10569000B8F1000F01D0C8F80040BDE8F087000065
:1056A00030B5114900E011460A688242FBD34B68CD
:1056B0005C18844203D14068184448600846436837
:1056C0001C18944209D1084C103C2468A24209D00D
:1056D00052681A4442600A6812680260814200D02F
:1056E000086030BD0460F9E7CC00002070B50024EC
:1056F00041600B4D0061914206D8D11A82699142F6
:1057000006D2011D686807E09A4203D2994201D38C
:10571000012403E0011D286800F03EFA204670BD18
:10572000A400002010B5044600F05AFAA06B28B17E
:105730005FF0000400F074FA204610BD0124F9E780
:1057400030B589B0304D55E00498002806DADDE91F
:105750000601059A9047049800284BDB069C606977
:1057600010B1201D00F0E0F902A800F0B9F80246DF
:1057700004980A283ED2DFE800F00505053D2637EB
:1057800005053D260598A169034601442046FFF71B
:10579000ADFF00B3616A20468847E069012829D13E
:1057A000002000900598A169002342181946204660
:1057B00001F014F978B9502080F31188BFF34F8FAE
:1057C000BFF36F8FFEE70598A06128B181181346DB
:1057D0002046FFF78BFF0DE0502080F31188BFF3C8
:1057E0004F8FBFF36F8FFEE794F82C0010B920465F
:1057F00000F02AFA002204A9A86800F0F1FD0028B0
:10580000A2D109B030BD0000A40000202DE9FC4168
:105810000F46054600F0ACFB01A800F061F8044615
:10582000019818B101F048F8BDE8FC81224EAFB1F3
:1058300070680068A8B30027291B3A46B06800F0DA
:1058400081FA01F039F80028EED11C494FF0805060
:105850000860BFF34F8FBFF36F8FE5E7A542EBD82A
:1058600001F02AF830682746C068C468201D00F09F
:105870005BF9E069012810D1A0692B4641193A462D
:105880002046FFF733FF40B1002003460146009059
:105890002A46204601F0A2F820B1616A20468847D6
:1058A000C2E707E0502080F31188BFF34F8FBFF3AA
:1058B0006F8FFEE70127BFE7A400002004ED00E0A2
:1058C00006484168096829B14168C968C9684968DA
:1058D000016370474FF0FF31FAE7000068000020D5
:1058E00070B5054600F006FF064E04463069844256
:1058F00003D200F009F8012000E0002028602046D3
:10590000346170BDA4000020F8B5194D1FE0C068D7
:10591000C4680668201D00F007F9616A20468847C0
:10592000E069012813D1A0693044B04206D924614E
:105930006060211D286800F02FF908E00020034670
:10594000014600903246204601F048F838B12868F8
:1059500001680029DBD16968C5E90010F8BD502055
:1059600080F31188BFF34F8FBFF36F8FFEE7000006
:10597000A400002008484068401C4FF0500080F30D
:10598000118804D0BFF34F8FBFF36F8FFEE7BFF3D3
:105990004F8FBFF36F8FFEE7D4000020074C2068C5
:1059A000016841B1C0680021D0F80000FFF72EFF68
:1059B000FFF7C6FEF3E701210020F7E7A40000206F
:1059C0002DE9F041044600F00BF994F9455004F13B
:1059D000240609E0606A48B1304600F035FF08B19E
:1059E00000F048FA6D1E6DB2002DF3DC4FF0FF366B
:1059F00084F8456000F014F900F0F2F894F944508E
:105A000004F1100709E0206948B1384600F01CFF96
:105A100008B100F02FFA6D1E6DB2002DF3DC84F892
:105A20004460BDE8F04100F0FBB800002DE9F04112
:105A30000546002700F09CFA314E306808B9FFF7A0
:105A400079FDF06805424BD1C5B3083568070ED023
:105A500005F00700C0F108000544680707D0502092
:105A600080F31188BFF34F8FBFF36F8FFEE72DB325
:105A70007068854234D82248103001460C6801E035
:105A800020460C466168A94202D221680029F7D15C
:105A900031688C4224D0076821680160606808374B
:105AA000411B10290FD96019420708D0502080F3FC
:105AB0001188BFF34F8FBFF36F8FFEE710E0416097
:105AC0006560FFF7EDFD61687068401A7060B2684C
:105AD000904200D2B060F06801430020C4E90001A8
